{
  "contractName": "Voting",
  "abi": [
    {
      "inputs": [],
      "payable": false,
      "stateMutability": "nonpayable",
      "type": "constructor"
    },
    {
      "anonymous": false,
      "inputs": [
        {
          "indexed": false,
          "internalType": "address",
          "name": "candidate",
          "type": "address"
        }
      ],
      "name": "candidateEventAdded",
      "type": "event"
    },
    {
      "anonymous": false,
      "inputs": [
        {
          "indexed": false,
          "internalType": "address",
          "name": "candidate",
          "type": "address"
        }
      ],
      "name": "candidateEventRemoved",
      "type": "event"
    },
    {
      "anonymous": false,
      "inputs": [
        {
          "indexed": false,
          "internalType": "address",
          "name": "candidate",
          "type": "address"
        }
      ],
      "name": "candidateListAdded",
      "type": "event"
    },
    {
      "anonymous": false,
      "inputs": [
        {
          "indexed": false,
          "internalType": "address",
          "name": "candidate",
          "type": "address"
        }
      ],
      "name": "candidateListRemoved",
      "type": "event"
    },
    {
      "anonymous": false,
      "inputs": [
        {
          "indexed": false,
          "internalType": "address",
          "name": "voter",
          "type": "address"
        }
      ],
      "name": "castVotingEvent",
      "type": "event"
    },
    {
      "anonymous": false,
      "inputs": [
        {
          "indexed": false,
          "internalType": "bytes32",
          "name": "evtID",
          "type": "bytes32"
        }
      ],
      "name": "eventAdded",
      "type": "event"
    },
    {
      "anonymous": false,
      "inputs": [
        {
          "indexed": false,
          "internalType": "address",
          "name": "voter",
          "type": "address"
        }
      ],
      "name": "voterListAdded",
      "type": "event"
    },
    {
      "anonymous": false,
      "inputs": [
        {
          "indexed": false,
          "internalType": "address",
          "name": "voter",
          "type": "address"
        }
      ],
      "name": "voterListRemoved",
      "type": "event"
    },
    {
      "constant": false,
      "inputs": [
        {
          "internalType": "string",
          "name": "name",
          "type": "string"
        },
        {
          "internalType": "string",
          "name": "id",
          "type": "string"
        },
        {
          "internalType": "string",
          "name": "group",
          "type": "string"
        },
        {
          "internalType": "address",
          "name": "addr",
          "type": "address"
        }
      ],
      "name": "addToCandidate",
      "outputs": [],
      "payable": false,
      "stateMutability": "nonpayable",
      "type": "function"
    },
    {
      "constant": false,
      "inputs": [
        {
          "internalType": "string",
          "name": "name",
          "type": "string"
        },
        {
          "internalType": "string",
          "name": "id",
          "type": "string"
        },
        {
          "internalType": "address",
          "name": "addr",
          "type": "address"
        }
      ],
      "name": "addToVoter",
      "outputs": [],
      "payable": false,
      "stateMutability": "nonpayable",
      "type": "function"
    },
    {
      "constant": true,
      "inputs": [
        {
          "internalType": "uint256",
          "name": "",
          "type": "uint256"
        }
      ],
      "name": "candidatesList",
      "outputs": [
        {
          "internalType": "address",
          "name": "",
          "type": "address"
        }
      ],
      "payable": false,
      "stateMutability": "view",
      "type": "function"
    },
    {
      "constant": true,
      "inputs": [],
      "name": "getAllCandidates",
      "outputs": [
        {
          "internalType": "address[]",
          "name": "",
          "type": "address[]"
        }
      ],
      "payable": false,
      "stateMutability": "view",
      "type": "function"
    },
    {
      "constant": true,
      "inputs": [],
      "name": "getAllVoters",
      "outputs": [
        {
          "internalType": "address[]",
          "name": "",
          "type": "address[]"
        }
      ],
      "payable": false,
      "stateMutability": "view",
      "type": "function"
    },
    {
      "constant": true,
      "inputs": [
        {
          "internalType": "address",
          "name": "addr",
          "type": "address"
        }
      ],
      "name": "getCandidateByAddress",
      "outputs": [
        {
          "internalType": "string",
          "name": "",
          "type": "string"
        },
        {
          "internalType": "string",
          "name": "",
          "type": "string"
        },
        {
          "internalType": "string",
          "name": "",
          "type": "string"
        },
        {
          "internalType": "address",
          "name": "",
          "type": "address"
        },
        {
          "internalType": "bool",
          "name": "",
          "type": "bool"
        }
      ],
      "payable": false,
      "stateMutability": "view",
      "type": "function"
    },
    {
      "constant": true,
      "inputs": [
        {
          "internalType": "string",
          "name": "id",
          "type": "string"
        }
      ],
      "name": "getCandidateByID",
      "outputs": [
        {
          "internalType": "string",
          "name": "",
          "type": "string"
        },
        {
          "internalType": "string",
          "name": "",
          "type": "string"
        },
        {
          "internalType": "string",
          "name": "",
          "type": "string"
        },
        {
          "internalType": "address",
          "name": "",
          "type": "address"
        },
        {
          "internalType": "bool",
          "name": "",
          "type": "bool"
        }
      ],
      "payable": false,
      "stateMutability": "view",
      "type": "function"
    },
    {
      "constant": true,
      "inputs": [
        {
          "internalType": "address",
          "name": "addr",
          "type": "address"
        }
      ],
      "name": "getVoterByAddress",
      "outputs": [
        {
          "internalType": "string",
          "name": "",
          "type": "string"
        },
        {
          "internalType": "string",
          "name": "",
          "type": "string"
        },
        {
          "internalType": "address",
          "name": "",
          "type": "address"
        },
        {
          "internalType": "bool",
          "name": "",
          "type": "bool"
        }
      ],
      "payable": false,
      "stateMutability": "view",
      "type": "function"
    },
    {
      "constant": true,
      "inputs": [
        {
          "internalType": "string",
          "name": "id",
          "type": "string"
        }
      ],
      "name": "getVoterByID",
      "outputs": [
        {
          "internalType": "string",
          "name": "",
          "type": "string"
        },
        {
          "internalType": "string",
          "name": "",
          "type": "string"
        },
        {
          "internalType": "address",
          "name": "",
          "type": "address"
        },
        {
          "internalType": "bool",
          "name": "",
          "type": "bool"
        }
      ],
      "payable": false,
      "stateMutability": "view",
      "type": "function"
    },
    {
      "constant": true,
      "inputs": [
        {
          "internalType": "address",
          "name": "addr",
          "type": "address"
        }
      ],
      "name": "isCandidateListed",
      "outputs": [
        {
          "internalType": "bool",
          "name": "",
          "type": "bool"
        }
      ],
      "payable": false,
      "stateMutability": "view",
      "type": "function"
    },
    {
      "constant": true,
      "inputs": [
        {
          "internalType": "address",
          "name": "addr",
          "type": "address"
        }
      ],
      "name": "isVoterListed",
      "outputs": [
        {
          "internalType": "bool",
          "name": "",
          "type": "bool"
        }
      ],
      "payable": false,
      "stateMutability": "view",
      "type": "function"
    },
    {
      "constant": true,
      "inputs": [],
      "name": "owner",
      "outputs": [
        {
          "internalType": "address",
          "name": "",
          "type": "address"
        }
      ],
      "payable": false,
      "stateMutability": "view",
      "type": "function"
    },
    {
      "constant": true,
      "inputs": [
        {
          "internalType": "address",
          "name": "",
          "type": "address"
        }
      ],
      "name": "regCandidates",
      "outputs": [
        {
          "internalType": "string",
          "name": "name",
          "type": "string"
        },
        {
          "internalType": "string",
          "name": "id",
          "type": "string"
        },
        {
          "internalType": "string",
          "name": "group",
          "type": "string"
        },
        {
          "internalType": "bool",
          "name": "active",
          "type": "bool"
        }
      ],
      "payable": false,
      "stateMutability": "view",
      "type": "function"
    },
    {
      "constant": true,
      "inputs": [
        {
          "internalType": "address",
          "name": "",
          "type": "address"
        }
      ],
      "name": "regVoters",
      "outputs": [
        {
          "internalType": "string",
          "name": "name",
          "type": "string"
        },
        {
          "internalType": "string",
          "name": "id",
          "type": "string"
        },
        {
          "internalType": "bool",
          "name": "active",
          "type": "bool"
        }
      ],
      "payable": false,
      "stateMutability": "view",
      "type": "function"
    },
    {
      "constant": false,
      "inputs": [
        {
          "internalType": "address",
          "name": "addr",
          "type": "address"
        }
      ],
      "name": "removeFromCandidate",
      "outputs": [],
      "payable": false,
      "stateMutability": "nonpayable",
      "type": "function"
    },
    {
      "constant": false,
      "inputs": [
        {
          "internalType": "address",
          "name": "addr",
          "type": "address"
        }
      ],
      "name": "removeFromVoter",
      "outputs": [],
      "payable": false,
      "stateMutability": "nonpayable",
      "type": "function"
    },
    {
      "constant": true,
      "inputs": [
        {
          "internalType": "uint256",
          "name": "",
          "type": "uint256"
        }
      ],
      "name": "votersList",
      "outputs": [
        {
          "internalType": "address",
          "name": "",
          "type": "address"
        }
      ],
      "payable": false,
      "stateMutability": "view",
      "type": "function"
    },
    {
      "constant": false,
      "inputs": [
        {
          "internalType": "string",
          "name": "eventName",
          "type": "string"
        },
        {
          "internalType": "string",
          "name": "location",
          "type": "string"
        },
        {
          "internalType": "uint256",
          "name": "startDate",
          "type": "uint256"
        },
        {
          "internalType": "uint256",
          "name": "period",
          "type": "uint256"
        }
      ],
      "name": "registerEvent",
      "outputs": [],
      "payable": false,
      "stateMutability": "nonpayable",
      "type": "function"
    },
    {
      "constant": true,
      "inputs": [
        {
          "internalType": "string",
          "name": "eventName",
          "type": "string"
        }
      ],
      "name": "getEventByName",
      "outputs": [
        {
          "internalType": "bytes32",
          "name": "",
          "type": "bytes32"
        },
        {
          "internalType": "string",
          "name": "",
          "type": "string"
        },
        {
          "internalType": "string",
          "name": "",
          "type": "string"
        },
        {
          "internalType": "uint256",
          "name": "",
          "type": "uint256"
        },
        {
          "internalType": "uint256",
          "name": "",
          "type": "uint256"
        }
      ],
      "payable": false,
      "stateMutability": "view",
      "type": "function"
    },
    {
      "constant": true,
      "inputs": [
        {
          "internalType": "bytes32",
          "name": "evtID",
          "type": "bytes32"
        }
      ],
      "name": "getEventByID",
      "outputs": [
        {
          "internalType": "bytes32",
          "name": "",
          "type": "bytes32"
        },
        {
          "internalType": "string",
          "name": "",
          "type": "string"
        },
        {
          "internalType": "string",
          "name": "",
          "type": "string"
        },
        {
          "internalType": "uint256",
          "name": "",
          "type": "uint256"
        },
        {
          "internalType": "uint256",
          "name": "",
          "type": "uint256"
        }
      ],
      "payable": false,
      "stateMutability": "view",
      "type": "function"
    },
    {
      "constant": true,
      "inputs": [
        {
          "internalType": "bytes32",
          "name": "evtID",
          "type": "bytes32"
        }
      ],
      "name": "getCandidatesByEventID",
      "outputs": [
        {
          "internalType": "address[]",
          "name": "",
          "type": "address[]"
        }
      ],
      "payable": false,
      "stateMutability": "view",
      "type": "function"
    },
    {
      "constant": false,
      "inputs": [
        {
          "internalType": "address",
          "name": "candidate",
          "type": "address"
        },
        {
          "internalType": "bytes32",
          "name": "evtID",
          "type": "bytes32"
        }
      ],
      "name": "addCandidateToEvent",
      "outputs": [],
      "payable": false,
      "stateMutability": "nonpayable",
      "type": "function"
    },
    {
      "constant": false,
      "inputs": [
        {
          "internalType": "address",
          "name": "candidate",
          "type": "address"
        },
        {
          "internalType": "bytes32",
          "name": "evtID",
          "type": "bytes32"
        }
      ],
      "name": "removeCandidateFromEvent",
      "outputs": [],
      "payable": false,
      "stateMutability": "nonpayable",
      "type": "function"
    },
    {
      "constant": false,
      "inputs": [
        {
          "internalType": "address",
          "name": "candidate",
          "type": "address"
        },
        {
          "internalType": "bytes32",
          "name": "evtID",
          "type": "bytes32"
        }
      ],
      "name": "castVoting",
      "outputs": [],
      "payable": false,
      "stateMutability": "nonpayable",
      "type": "function"
    },
    {
      "constant": true,
      "inputs": [
        {
          "internalType": "address",
          "name": "candidate",
          "type": "address"
        },
        {
          "internalType": "bytes32",
          "name": "evtID",
          "type": "bytes32"
        }
      ],
      "name": "getResultByCandidate",
      "outputs": [
        {
          "internalType": "uint256",
          "name": "",
          "type": "uint256"
        }
      ],
      "payable": false,
      "stateMutability": "view",
      "type": "function"
    }
  ],
  "bytecode": "0x608060405234801561001057600080fd5b5033600560006101000a81548173ffffffffffffffffffffffffffffffffffffffff021916908373ffffffffffffffffffffffffffffffffffffffff16021790555033600560006101000a81548173ffffffffffffffffffffffffffffffffffffffff021916908373ffffffffffffffffffffffffffffffffffffffff16021790555033600560006101000a81548173ffffffffffffffffffffffffffffffffffffffff021916908373ffffffffffffffffffffffffffffffffffffffff160217905550614f07806100e36000396000f3fe608060405234801561001057600080fd5b50600436106101725760003560e01c80638da5cb5b116100de578063b70badd111610097578063df2d5ec711610071578063df2d5ec714611576578063e199083d146115e4578063e29c5e8914611632578063fc99ef801461168057610172565b8063b70badd1146110df578063b9a55c4114611207578063c38c97491461141057610172565b80638da5cb5b14610b845780639237145114610bce57806397eb6dca14610e185780639c013cad14610e5c578063aa0299d414610ebe578063ad25e82914610f0c57610172565b80632e6997fe116101305780632e6997fe1461082a57806335bbe70e146108895780633626c3e2146108e85780634bdd75851461096b57806372ce73ab14610ad25780638256c06f14610b4057610172565b806242c438146101775780630787f6d2146102ab57806311cd1ff6146104605780631b431441146104bc578063246e4d401461051857806326bb6490146106b8575b600080fd5b6101b96004803603602081101561018d57600080fd5b81019080803573ffffffffffffffffffffffffffffffffffffffff16906020019092919050505061185e565b60405180806020018060200184151515158152602001838103835286818151815260200191508051906020019080838360005b838110156102075780820151818401526020810190506101ec565b50505050905090810190601f1680156102345780820380516001836020036101000a031916815260200191505b50838103825285818151815260200191508051906020019080838360005b8381101561026d578082015181840152602081019050610252565b50505050905090810190601f16801561029a5780820380516001836020036101000a031916815260200191505b509550505050505060405180910390f35b610364600480360360208110156102c157600080fd5b81019080803590602001906401000000008111156102de57600080fd5b8201836020820111156102f057600080fd5b8035906020019184600183028401116401000000008311171561031257600080fd5b91908080601f016020809104026020016040519081016040528093929190818152602001838380828437600081840152601f19601f8201169050808301925050505050505091929192905050506119c5565b604051808681526020018060200180602001858152602001848152602001838103835287818151815260200191508051906020019080838360005b838110156103ba57808201518184015260208101905061039f565b50505050905090810190601f1680156103e75780820380516001836020036101000a031916815260200191505b50838103825286818151815260200191508051906020019080838360005b83811015610420578082015181840152602081019050610405565b50505050905090810190601f16801561044d5780820380516001836020036101000a031916815260200191505b5097505050505050505060405180910390f35b6104a26004803603602081101561047657600080fd5b81019080803573ffffffffffffffffffffffffffffffffffffffff169060200190929190505050611c8b565b604051808215151515815260200191505060405180910390f35b6104fe600480360360208110156104d257600080fd5b81019080803573ffffffffffffffffffffffffffffffffffffffff169060200190929190505050611d9b565b604051808215151515815260200191505060405180910390f35b61055a6004803603602081101561052e57600080fd5b81019080803573ffffffffffffffffffffffffffffffffffffffff169060200190929190505050611eaa565b6040518080602001806020018060200185151515158152602001848103845288818151815260200191508051906020019080838360005b838110156105ac578082015181840152602081019050610591565b50505050905090810190601f1680156105d95780820380516001836020036101000a031916815260200191505b50848103835287818151815260200191508051906020019080838360005b838110156106125780820151818401526020810190506105f7565b50505050905090810190601f16801561063f5780820380516001836020036101000a031916815260200191505b50848103825286818151815260200191508051906020019080838360005b8381101561067857808201518184015260208101905061065d565b50505050905090810190601f1680156106a55780820380516001836020036101000a031916815260200191505b5097505050505050505060405180910390f35b610828600480360360608110156106ce57600080fd5b81019080803590602001906401000000008111156106eb57600080fd5b8201836020820111156106fd57600080fd5b8035906020019184600183028401116401000000008311171561071f57600080fd5b91908080601f016020809104026020016040519081016040528093929190818152602001838380828437600081840152601f19601f8201169050808301925050505050505091929192908035906020019064010000000081111561078257600080fd5b82018360208201111561079457600080fd5b803590602001918460018302840111640100000000831117156107b657600080fd5b91908080601f016020809104026020016040519081016040528093929190818152602001838380828437600081840152601f19601f820116905080830192505050505050509192919290803573ffffffffffffffffffffffffffffffffffffffff1690602001909291905050506120af565b005b610832612342565b6040518080602001828103825283818151815260200191508051906020019060200280838360005b8381101561087557808201518184015260208101905061085a565b505050509050019250505060405180910390f35b6108916123d0565b6040518080602001828103825283818151815260200191508051906020019060200280838360005b838110156108d45780820151818401526020810190506108b9565b505050509050019250505060405180910390f35b610914600480360360208110156108fe57600080fd5b810190808035906020019092919050505061245e565b6040518080602001828103825283818151815260200191508051906020019060200280838360005b8381101561095757808201518184015260208101905061093c565b505050509050019250505060405180910390f35b6109ad6004803603602081101561098157600080fd5b81019080803573ffffffffffffffffffffffffffffffffffffffff16906020019092919050505061250d565b6040518080602001806020018573ffffffffffffffffffffffffffffffffffffffff1673ffffffffffffffffffffffffffffffffffffffff16815260200184151515158152602001838103835287818151815260200191508051906020019080838360005b83811015610a2d578082015181840152602081019050610a12565b50505050905090810190601f168015610a5a5780820380516001836020036101000a031916815260200191505b50838103825286818151815260200191508051906020019080838360005b83811015610a93578082015181840152602081019050610a78565b50505050905090810190601f168015610ac05780820380516001836020036101000a031916815260200191505b50965050505050505060405180910390f35b610afe60048036036020811015610ae857600080fd5b810190808035906020019092919050505061272f565b604051808273ffffffffffffffffffffffffffffffffffffffff1673ffffffffffffffffffffffffffffffffffffffff16815260200191505060405180910390f35b610b8260048036036020811015610b5657600080fd5b81019080803573ffffffffffffffffffffffffffffffffffffffff16906020019092919050505061276b565b005b610b8c61296b565b604051808273ffffffffffffffffffffffffffffffffffffffff1673ffffffffffffffffffffffffffffffffffffffff16815260200191505060405180910390f35b610c8760048036036020811015610be457600080fd5b8101908080359060200190640100000000811115610c0157600080fd5b820183602082011115610c1357600080fd5b80359060200191846001830284011164010000000083111715610c3557600080fd5b91908080601f016020809104026020016040519081016040528093929190818152602001838380828437600081840152601f19601f820116905080830192505050505050509192919290505050612991565b604051808060200180602001806020018673ffffffffffffffffffffffffffffffffffffffff1673ffffffffffffffffffffffffffffffffffffffff16815260200185151515158152602001848103845289818151815260200191508051906020019080838360005b83811015610d0b578082015181840152602081019050610cf0565b50505050905090810190601f168015610d385780820380516001836020036101000a031916815260200191505b50848103835288818151815260200191508051906020019080838360005b83811015610d71578082015181840152602081019050610d56565b50505050905090810190601f168015610d9e5780820380516001836020036101000a031916815260200191505b50848103825287818151815260200191508051906020019080838360005b83811015610dd7578082015181840152602081019050610dbc565b50505050905090810190601f168015610e045780820380516001836020036101000a031916815260200191505b509850505050505050505060405180910390f35b610e5a60048036036020811015610e2e57600080fd5b81019080803573ffffffffffffffffffffffffffffffffffffffff169060200190929190505050612fb9565b005b610ea860048036036040811015610e7257600080fd5b81019080803573ffffffffffffffffffffffffffffffffffffffff169060200190929190803590602001909291905050506131b8565b6040518082815260200191505060405180910390f35b610f0a60048036036040811015610ed457600080fd5b81019080803573ffffffffffffffffffffffffffffffffffffffff16906020019092919080359060200190929190505050613232565b005b610f4e60048036036020811015610f2257600080fd5b81019080803573ffffffffffffffffffffffffffffffffffffffff169060200190929190505050613567565b604051808060200180602001806020018673ffffffffffffffffffffffffffffffffffffffff1673ffffffffffffffffffffffffffffffffffffffff16815260200185151515158152602001848103845289818151815260200191508051906020019080838360005b83811015610fd2578082015181840152602081019050610fb7565b50505050905090810190601f168015610fff5780820380516001836020036101000a031916815260200191505b50848103835288818151815260200191508051906020019080838360005b8381101561103857808201518184015260208101905061101d565b50505050905090810190601f1680156110655780820380516001836020036101000a031916815260200191505b50848103825287818151815260200191508051906020019080838360005b8381101561109e578082015181840152602081019050611083565b50505050905090810190601f1680156110cb5780820380516001836020036101000a031916815260200191505b509850505050505050505060405180910390f35b61110b600480360360208110156110f557600080fd5b8101908080359060200190929190505050613869565b604051808681526020018060200180602001858152602001848152602001838103835287818151815260200191508051906020019080838360005b83811015611161578082015181840152602081019050611146565b50505050905090810190601f16801561118e5780820380516001836020036101000a031916815260200191505b50838103825286818151815260200191508051906020019080838360005b838110156111c75780820151818401526020810190506111ac565b50505050905090810190601f1680156111f45780820380516001836020036101000a031916815260200191505b5097505050505050505060405180910390f35b61140e6004803603608081101561121d57600080fd5b810190808035906020019064010000000081111561123a57600080fd5b82018360208201111561124c57600080fd5b8035906020019184600183028401116401000000008311171561126e57600080fd5b91908080601f016020809104026020016040519081016040528093929190818152602001838380828437600081840152601f19601f820116905080830192505050505050509192919290803590602001906401000000008111156112d157600080fd5b8201836020820111156112e357600080fd5b8035906020019184600183028401116401000000008311171561130557600080fd5b91908080601f016020809104026020016040519081016040528093929190818152602001838380828437600081840152601f19601f8201169050808301925050505050505091929192908035906020019064010000000081111561136857600080fd5b82018360208201111561137a57600080fd5b8035906020019184600183028401116401000000008311171561139c57600080fd5b91908080601f016020809104026020016040519081016040528093929190818152602001838380828437600081840152601f19601f820116905080830192505050505050509192919290803573ffffffffffffffffffffffffffffffffffffffff169060200190929190505050613a47565b005b6115746004803603608081101561142657600080fd5b810190808035906020019064010000000081111561144357600080fd5b82018360208201111561145557600080fd5b8035906020019184600183028401116401000000008311171561147757600080fd5b91908080601f016020809104026020016040519081016040528093929190818152602001838380828437600081840152601f19601f820116905080830192505050505050509192919290803590602001906401000000008111156114da57600080fd5b8201836020820111156114ec57600080fd5b8035906020019184600183028401116401000000008311171561150e57600080fd5b91908080601f016020809104026020016040519081016040528093929190818152602001838380828437600081840152601f19601f8201169050808301925050505050505091929192908035906020019092919080359060200190929190505050613d2f565b005b6115a26004803603602081101561158c57600080fd5b8101908080359060200190929190505050613f24565b604051808273ffffffffffffffffffffffffffffffffffffffff1673ffffffffffffffffffffffffffffffffffffffff16815260200191505060405180910390f35b611630600480360360408110156115fa57600080fd5b81019080803573ffffffffffffffffffffffffffffffffffffffff16906020019092919080359060200190929190505050613f60565b005b61167e6004803603604081101561164857600080fd5b81019080803573ffffffffffffffffffffffffffffffffffffffff16906020019092919080359060200190929190505050614062565b005b6117396004803603602081101561169657600080fd5b81019080803590602001906401000000008111156116b357600080fd5b8201836020820111156116c557600080fd5b803590602001918460018302840111640100000000831117156116e757600080fd5b91908080601f016020809104026020016040519081016040528093929190818152602001838380828437600081840152601f19601f8201169050808301925050505050505091929192905050506141e3565b6040518080602001806020018573ffffffffffffffffffffffffffffffffffffffff1673ffffffffffffffffffffffffffffffffffffffff16815260200184151515158152602001838103835287818151815260200191508051906020019080838360005b838110156117b957808201518184015260208101905061179e565b50505050905090810190601f1680156117e65780820380516001836020036101000a031916815260200191505b50838103825286818151815260200191508051906020019080838360005b8381101561181f578082015181840152602081019050611804565b50505050905090810190601f16801561184c5780820380516001836020036101000a031916815260200191505b50965050505050505060405180910390f35b6001602052806000526040600020600091509050806000018054600181600116156101000203166002900480601f01602080910402602001604051908101604052809291908181526020018280546001816001161561010002031660029004801561190a5780601f106118df5761010080835404028352916020019161190a565b820191906000526020600020905b8154815290600101906020018083116118ed57829003601f168201915b505050505090806001018054600181600116156101000203166002900480601f0160208091040260200160405190810160405280929190818152602001828054600181600116156101000203166002900480156119a85780601f1061197d576101008083540402835291602001916119a8565b820191906000526020600020905b81548152906001019060200180831161198b57829003601f168201915b5050505050908060020160009054906101000a900460ff16905083565b6000606080600080856040516020018082805190602001908083835b60208310611a0457805182526020820191506020810190506020830392506119e1565b6001836020036101000a03801982511681845116808217855250505050505090500191505060405160208183030381529060405280519060200120611a48816146f5565b6000876040516020018082805190602001908083835b60208310611a815780518252602082019150602081019050602083039250611a5e565b6001836020036101000a0380198251168184511680821785525050505050509050019150506040516020818303038152906040528051906020012090506002600082815260200190815260200160002060000160000154600260008381526020019081526020016000206000016001016002600084815260200190815260200160002060000160040160026000858152602001908152602001600020600001600201546002600086815260200190815260200160002060000160030154838054600181600116156101000203166002900480601f016020809104026020016040519081016040528092919081815260200182805460018160011615610100020316600290048015611bd35780601f10611ba857610100808354040283529160200191611bd3565b820191906000526020600020905b815481529060010190602001808311611bb657829003601f168201915b50505050509350828054600181600116156101000203166002900480601f016020809104026020016040519081016040528092919081815260200182805460018160011615610100020316600290048015611c6f5780601f10611c4457610100808354040283529160200191611c6f565b820191906000526020600020905b815481529060010190602001808311611c5257829003601f168201915b5050505050925096509650965096509650505091939590929450565b60008073ffffffffffffffffffffffffffffffffffffffff168273ffffffffffffffffffffffffffffffffffffffff161415611d2f576040517f08c379a00000000000000000000000000000000000000000000000000000000081526004018080602001828103825260128152602001807f4572726f722061646472657373207a65726f000000000000000000000000000081525060200191505060405180910390fd5b60006007541415611d435760009050611d96565b600160008373ffffffffffffffffffffffffffffffffffffffff1673ffffffffffffffffffffffffffffffffffffffff16815260200190815260200160002060020160009054906101000a900460ff1690505b919050565b60008073ffffffffffffffffffffffffffffffffffffffff168273ffffffffffffffffffffffffffffffffffffffff161415611e3f576040517f08c379a00000000000000000000000000000000000000000000000000000000081526004018080602001828103825260128152602001807f4572726f722061646472657373207a65726f000000000000000000000000000081525060200191505060405180910390fd5b60006006541415611e535760009050611ea5565b6000808373ffffffffffffffffffffffffffffffffffffffff1673ffffffffffffffffffffffffffffffffffffffff16815260200190815260200160002060030160009054906101000a900460ff1690505b919050565b6000602052806000526040600020600091509050806000018054600181600116156101000203166002900480601f016020809104026020016040519081016040528092919081815260200182805460018160011615610100020316600290048015611f565780601f10611f2b57610100808354040283529160200191611f56565b820191906000526020600020905b815481529060010190602001808311611f3957829003601f168201915b505050505090806001018054600181600116156101000203166002900480601f016020809104026020016040519081016040528092919081815260200182805460018160011615610100020316600290048015611ff45780601f10611fc957610100808354040283529160200191611ff4565b820191906000526020600020905b815481529060010190602001808311611fd757829003601f168201915b505050505090806002018054600181600116156101000203166002900480601f0160208091040260200160405190810160405280929190818152602001828054600181600116156101000203166002900480156120925780601f1061206757610100808354040283529160200191612092565b820191906000526020600020905b81548152906001019060200180831161207557829003601f168201915b5050505050908060030160009054906101000a900460ff16905084565b6120b7614786565b600073ffffffffffffffffffffffffffffffffffffffff168173ffffffffffffffffffffffffffffffffffffffff16141561215a576040517f08c379a00000000000000000000000000000000000000000000000000000000081526004018080602001828103825260128152602001807f4572726f722061646472657373207a65726f000000000000000000000000000081525060200191505060405180910390fd5b82600160008373ffffffffffffffffffffffffffffffffffffffff1673ffffffffffffffffffffffffffffffffffffffff16815260200190815260200160002060000190805190602001906121b0929190614de0565b5081600160008373ffffffffffffffffffffffffffffffffffffffff1673ffffffffffffffffffffffffffffffffffffffff1681526020019081526020016000206001019080519060200190612207929190614de0565b5060018060008373ffffffffffffffffffffffffffffffffffffffff1673ffffffffffffffffffffffffffffffffffffffff16815260200190815260200160002060020160006101000a81548160ff02191690831515021790555060076000815480929190600101919050555060048190806001815401808255809150509060018203906000526020600020016000909192909190916101000a81548173ffffffffffffffffffffffffffffffffffffffff021916908373ffffffffffffffffffffffffffffffffffffffff160217905550507f379046d8ba607255d9cbbb17321aad34a2a163685708adf7cf127a7445d0202a81604051808273ffffffffffffffffffffffffffffffffffffffff1673ffffffffffffffffffffffffffffffffffffffff16815260200191505060405180910390a1505050565b606060038054806020026020016040519081016040528092919081815260200182805480156123c657602002820191906000526020600020905b8160009054906101000a900473ffffffffffffffffffffffffffffffffffffffff1673ffffffffffffffffffffffffffffffffffffffff168152602001906001019080831161237c575b5050505050905090565b6060600480548060200260200160405190810160405280929190818152602001828054801561245457602002820191906000526020600020905b8160009054906101000a900473ffffffffffffffffffffffffffffffffffffffff1673ffffffffffffffffffffffffffffffffffffffff168152602001906001019080831161240a575b5050505050905090565b60608161246a816146f5565b6002600084815260200190815260200160002060060180548060200260200160405190810160405280929190818152602001828054801561250057602002820191906000526020600020905b8160009054906101000a900473ffffffffffffffffffffffffffffffffffffffff1673ffffffffffffffffffffffffffffffffffffffff16815260200190600101908083116124b6575b5050505050915050919050565b606080600080600160008673ffffffffffffffffffffffffffffffffffffffff1673ffffffffffffffffffffffffffffffffffffffff168152602001908152602001600020600001600160008773ffffffffffffffffffffffffffffffffffffffff1673ffffffffffffffffffffffffffffffffffffffff16815260200190815260200160002060010186600160008973ffffffffffffffffffffffffffffffffffffffff1673ffffffffffffffffffffffffffffffffffffffff16815260200190815260200160002060020160009054906101000a900460ff16838054600181600116156101000203166002900480601f01602080910402602001604051908101604052809291908181526020018280546001816001161561010002031660029004801561267d5780601f106126525761010080835404028352916020019161267d565b820191906000526020600020905b81548152906001019060200180831161266057829003601f168201915b50505050509350828054600181600116156101000203166002900480601f0160208091040260200160405190810160405280929190818152602001828054600181600116156101000203166002900480156127195780601f106126ee57610100808354040283529160200191612719565b820191906000526020600020905b8154815290600101906020018083116126fc57829003601f168201915b5050505050925093509350935093509193509193565b6004818154811061273c57fe5b906000526020600020016000915054906101000a900473ffffffffffffffffffffffffffffffffffffffff1681565b612773614786565b600073ffffffffffffffffffffffffffffffffffffffff168173ffffffffffffffffffffffffffffffffffffffff161415612816576040517f08c379a00000000000000000000000000000000000000000000000000000000081526004018080602001828103825260128152602001807f4572726f722061646472657373207a65726f000000000000000000000000000081525060200191505060405180910390fd5b6001151561282382611c8b565b151514612898576040517f08c379a00000000000000000000000000000000000000000000000000000000081526004018080602001828103825260138152602001807f566f746572206973206e6f74206c69737465640000000000000000000000000081525060200191505060405180910390fd5b6000600160008373ffffffffffffffffffffffffffffffffffffffff1673ffffffffffffffffffffffffffffffffffffffff16815260200190815260200160002060020160006101000a81548160ff0219169083151502179055506007600081548092919060010191905055507f29c844f2361d8fbffbc9d62918726e4ece68955bc9823e1e85acc02d14e8772981604051808273ffffffffffffffffffffffffffffffffffffffff1673ffffffffffffffffffffffffffffffffffffffff16815260200191505060405180910390a150565b600560009054906101000a900473ffffffffffffffffffffffffffffffffffffffff1681565b6060806060600080600060038054905011612a14576040517f08c379a00000000000000000000000000000000000000000000000000000000081526004018080602001828103825260108152602001807f4e6f6e6520696e20746865206c6973740000000000000000000000000000000081525060200191505060405180910390fd5b6000866040516020018082805190602001908083835b60208310612a4d5780518252602082019150602081019050602083039250612a2a565b6001836020036101000a03801982511681845116808217855250505050505090500191505060405160208183030381529060405280519060200120905060008090505b600380549050811015612fad578160008060038481548110612aae57fe5b9060005260206000200160009054906101000a900473ffffffffffffffffffffffffffffffffffffffff1673ffffffffffffffffffffffffffffffffffffffff1673ffffffffffffffffffffffffffffffffffffffff1681526020019081526020016000206001016040516020018082805460018160011615610100020316600290048015612b745780601f10612b52576101008083540402835291820191612b74565b820191906000526020600020905b815481529060010190602001808311612b60575b5050915050604051602081830303815290604052805190602001201415612fa05760008060038381548110612ba557fe5b9060005260206000200160009054906101000a900473ffffffffffffffffffffffffffffffffffffffff1673ffffffffffffffffffffffffffffffffffffffff1673ffffffffffffffffffffffffffffffffffffffff16815260200190815260200160002060000160008060038481548110612c1d57fe5b9060005260206000200160009054906101000a900473ffffffffffffffffffffffffffffffffffffffff1673ffffffffffffffffffffffffffffffffffffffff1673ffffffffffffffffffffffffffffffffffffffff16815260200190815260200160002060010160008060038581548110612c9557fe5b9060005260206000200160009054906101000a900473ffffffffffffffffffffffffffffffffffffffff1673ffffffffffffffffffffffffffffffffffffffff1673ffffffffffffffffffffffffffffffffffffffff16815260200190815260200160002060020160038481548110612d0a57fe5b9060005260206000200160009054906101000a900473ffffffffffffffffffffffffffffffffffffffff1660008060038781548110612d4557fe5b9060005260206000200160009054906101000a900473ffffffffffffffffffffffffffffffffffffffff1673ffffffffffffffffffffffffffffffffffffffff1673ffffffffffffffffffffffffffffffffffffffff16815260200190815260200160002060030160009054906101000a900460ff16848054600181600116156101000203166002900480601f016020809104026020016040519081016040528092919081815260200182805460018160011615610100020316600290048015612e505780601f10612e2557610100808354040283529160200191612e50565b820191906000526020600020905b815481529060010190602001808311612e3357829003601f168201915b50505050509450838054600181600116156101000203166002900480601f016020809104026020016040519081016040528092919081815260200182805460018160011615610100020316600290048015612eec5780601f10612ec157610100808354040283529160200191612eec565b820191906000526020600020905b815481529060010190602001808311612ecf57829003601f168201915b50505050509350828054600181600116156101000203166002900480601f016020809104026020016040519081016040528092919081815260200182805460018160011615610100020316600290048015612f885780601f10612f5d57610100808354040283529160200191612f88565b820191906000526020600020905b815481529060010190602001808311612f6b57829003601f168201915b50505050509250965096509650965096505050612fb0565b8080600101915050612a90565b50505b91939590929450565b612fc1614786565b600073ffffffffffffffffffffffffffffffffffffffff168173ffffffffffffffffffffffffffffffffffffffff161415613064576040517f08c379a00000000000000000000000000000000000000000000000000000000081526004018080602001828103825260128152602001807f4572726f722061646472657373207a65726f000000000000000000000000000081525060200191505060405180910390fd5b6001151561307182611d9b565b1515146130e6576040517f08c379a00000000000000000000000000000000000000000000000000000000081526004018080602001828103825260178152602001807f43616e646964617465206973206e6f74206c697374656400000000000000000081525060200191505060405180910390fd5b60008060008373ffffffffffffffffffffffffffffffffffffffff1673ffffffffffffffffffffffffffffffffffffffff16815260200190815260200160002060030160006101000a81548160ff0219169083151502179055506006600081548092919060010191905055507f9584f8f05597c90f63d2f570faefb1951d4b2b1502eceee2be9de4d9403e91b681604051808273ffffffffffffffffffffffffffffffffffffffff1673ffffffffffffffffffffffffffffffffffffffff16815260200191505060405180910390a150565b6000816131c4816146f5565b83836131d0828261484b565b6002600086815260200190815260200160002060080160008773ffffffffffffffffffffffffffffffffffffffff1673ffffffffffffffffffffffffffffffffffffffff16815260200190815260200160002060000154935050505092915050565b61323a614786565b80613244816146f5565b8282613250828261484b565b60006002600086815260200190815260200160002060060180549050116132df576040517f08c379a00000000000000000000000000000000000000000000000000000000081526004018080602001828103825260108152602001807f4e6f2063616e646964617465207965740000000000000000000000000000000081525060200191505060405180910390fd5b60008090505b6002600086815260200190815260200160002060060180549050811015613397578573ffffffffffffffffffffffffffffffffffffffff1660026000878152602001908152602001600020600601828154811061333e57fe5b9060005260206000200160009054906101000a900473ffffffffffffffffffffffffffffffffffffffff1673ffffffffffffffffffffffffffffffffffffffff16141561338a57613397565b80806001019150506132e5565b600260008681526020019081526020016000206006016001600260008881526020019081526020016000206006018054905003815481106133d457fe5b9060005260206000200160009054906101000a900473ffffffffffffffffffffffffffffffffffffffff1660026000878152602001908152602001600020600601828154811061342057fe5b9060005260206000200160006101000a81548173ffffffffffffffffffffffffffffffffffffffff021916908373ffffffffffffffffffffffffffffffffffffffff160217905550600260008681526020019081526020016000206006016001600260008881526020019081526020016000206006018054905003815481106134a557fe5b9060005260206000200160006101000a81549073ffffffffffffffffffffffffffffffffffffffff0219169055600260008681526020019081526020016000206006018054809190600190036134fb9190614e60565b507f4535e84a8af0d3f18c3369fd7962a5dcf04e56ec1246b84c6e7e21a9b5d0585486604051808273ffffffffffffffffffffffffffffffffffffffff1673ffffffffffffffffffffffffffffffffffffffff16815260200191505060405180910390a1505050505050565b60608060606000806000808773ffffffffffffffffffffffffffffffffffffffff1673ffffffffffffffffffffffffffffffffffffffff1681526020019081526020016000206000016000808873ffffffffffffffffffffffffffffffffffffffff1673ffffffffffffffffffffffffffffffffffffffff1681526020019081526020016000206001016000808973ffffffffffffffffffffffffffffffffffffffff1673ffffffffffffffffffffffffffffffffffffffff168152602001908152602001600020600201886000808b73ffffffffffffffffffffffffffffffffffffffff1673ffffffffffffffffffffffffffffffffffffffff16815260200190815260200160002060030160009054906101000a900460ff16848054600181600116156101000203166002900480601f0160208091040260200160405190810160405280929190818152602001828054600181600116156101000203166002900480156137175780601f106136ec57610100808354040283529160200191613717565b820191906000526020600020905b8154815290600101906020018083116136fa57829003601f168201915b50505050509450838054600181600116156101000203166002900480601f0160208091040260200160405190810160405280929190818152602001828054600181600116156101000203166002900480156137b35780601f10613788576101008083540402835291602001916137b3565b820191906000526020600020905b81548152906001019060200180831161379657829003601f168201915b50505050509350828054600181600116156101000203166002900480601f01602080910402602001604051908101604052809291908181526020018280546001816001161561010002031660029004801561384f5780601f106138245761010080835404028352916020019161384f565b820191906000526020600020905b81548152906001019060200180831161383257829003601f168201915b505050505092509450945094509450945091939590929450565b60006060806000808561387b816146f5565b600260008881526020019081526020016000206000016000015460026000898152602001908152602001600020600001600101600260008a8152602001908152602001600020600001600401600260008b815260200190815260200160002060000160020154600260008c815260200190815260200160002060000160030154838054600181600116156101000203166002900480601f0160208091040260200160405190810160405280929190818152602001828054600181600116156101000203166002900480156139905780601f1061396557610100808354040283529160200191613990565b820191906000526020600020905b81548152906001019060200180831161397357829003601f168201915b50505050509350828054600181600116156101000203166002900480601f016020809104026020016040519081016040528092919081815260200182805460018160011615610100020316600290048015613a2c5780601f10613a0157610100808354040283529160200191613a2c565b820191906000526020600020905b815481529060010190602001808311613a0f57829003601f168201915b50505050509250955095509550955095505091939590929450565b613a4f614786565b600073ffffffffffffffffffffffffffffffffffffffff168173ffffffffffffffffffffffffffffffffffffffff161415613af2576040517f08c379a00000000000000000000000000000000000000000000000000000000081526004018080602001828103825260128152602001807f4572726f722061646472657373207a65726f000000000000000000000000000081525060200191505060405180910390fd5b836000808373ffffffffffffffffffffffffffffffffffffffff1673ffffffffffffffffffffffffffffffffffffffff1681526020019081526020016000206000019080519060200190613b47929190614de0565b50826000808373ffffffffffffffffffffffffffffffffffffffff1673ffffffffffffffffffffffffffffffffffffffff1681526020019081526020016000206001019080519060200190613b9d929190614de0565b50816000808373ffffffffffffffffffffffffffffffffffffffff1673ffffffffffffffffffffffffffffffffffffffff1681526020019081526020016000206002019080519060200190613bf3929190614de0565b5060016000808373ffffffffffffffffffffffffffffffffffffffff1673ffffffffffffffffffffffffffffffffffffffff16815260200190815260200160002060030160006101000a81548160ff02191690831515021790555060066000815480929190600101919050555060038190806001815401808255809150509060018203906000526020600020016000909192909190916101000a81548173ffffffffffffffffffffffffffffffffffffffff021916908373ffffffffffffffffffffffffffffffffffffffff160217905550507f63b6412555aa3d25f46304a1b7ff62ebe03c2e7032a7f2a24ec5347c16ed2e6a81604051808273ffffffffffffffffffffffffffffffffffffffff1673ffffffffffffffffffffffffffffffffffffffff16815260200191505060405180910390a150505050565b613d37614786565b836040516020018082805190602001908083835b60208310613d6e5780518252602082019150602081019050602083039250613d4b565b6001836020036101000a03801982511681845116808217855250505050505090500191505060405160208183030381529060405280519060200120613db28161498c565b6000856040516020018082805190602001908083835b60208310613deb5780518252602082019150602081019050602083039250613dc8565b6001836020036101000a03801982511681845116808217855250505050505090500191505060405160208183030381529060405280519060200120905080600260008381526020019081526020016000206000016000018190555085600260008381526020019081526020016000206000016001019080519060200190613e73929190614de0565b5084600260008381526020019081526020016000206000016004019080519060200190613ea1929190614de0565b50836002600083815260200190815260200160002060000160020181905550620151808302840160026000838152602001908152602001600020600001600301819055507fcfe3fd8ad949cd507c9ca12009cde8e78bef29295bafa28b344eea3dfd13944c816040518082815260200191505060405180910390a1505050505050565b60038181548110613f3157fe5b906000526020600020016000915054906101000a900473ffffffffffffffffffffffffffffffffffffffff1681565b613f68614786565b80613f72816146f5565b8282613f7e8282614a1e565b600260008581526020019081526020016000206006018590806001815401808255809150509060018203906000526020600020016000909192909190916101000a81548173ffffffffffffffffffffffffffffffffffffffff021916908373ffffffffffffffffffffffffffffffffffffffff160217905550507fa5ac9aef50eb4ed616dc57c4466b74f6a7c48b376835dc96cd7eedca9fd77db985604051808273ffffffffffffffffffffffffffffffffffffffff1673ffffffffffffffffffffffffffffffffffffffff16815260200191505060405180910390a15050505050565b3361406c81614b42565b8161407681614c0e565b82614080816146f5565b848461408c828261484b565b8561409681614d4e565b6002600088815260200190815260200160002060080160008973ffffffffffffffffffffffffffffffffffffffff1673ffffffffffffffffffffffffffffffffffffffff16815260200190815260200160002060000160008154809291906001019190505550600260008881526020019081526020016000206007013390806001815401808255809150509060018203906000526020600020016000909192909190916101000a81548173ffffffffffffffffffffffffffffffffffffffff021916908373ffffffffffffffffffffffffffffffffffffffff160217905550507f81285fcbf32209ebee6cae5d6f5c17de713c9ae2215fbe549d6b3bad2392273533604051808273ffffffffffffffffffffffffffffffffffffffff1673ffffffffffffffffffffffffffffffffffffffff16815260200191505060405180910390a15050505050505050565b606080600080600060048054905011614264576040517f08c379a00000000000000000000000000000000000000000000000000000000081526004018080602001828103825260108152602001807f4e6f6e6520696e20746865206c6973740000000000000000000000000000000081525060200191505060405180910390fd5b6000856040516020018082805190602001908083835b6020831061429d578051825260208201915060208101905060208303925061427a565b6001836020036101000a03801982511681845116808217855250505050505090500191505060405160208183030381529060405280519060200120905060008090505b6004805490508110156146eb578160016000600484815481106142ff57fe5b9060005260206000200160009054906101000a900473ffffffffffffffffffffffffffffffffffffffff1673ffffffffffffffffffffffffffffffffffffffff1673ffffffffffffffffffffffffffffffffffffffff16815260200190815260200160002060010160405160200180828054600181600116156101000203166002900480156143c55780601f106143a35761010080835404028352918201916143c5565b820191906000526020600020905b8154815290600101906020018083116143b1575b50509150506040516020818303038152906040528051906020012014156146de5760016000600483815481106143f757fe5b9060005260206000200160009054906101000a900473ffffffffffffffffffffffffffffffffffffffff1673ffffffffffffffffffffffffffffffffffffffff1673ffffffffffffffffffffffffffffffffffffffff168152602001908152602001600020600001600160006004848154811061447057fe5b9060005260206000200160009054906101000a900473ffffffffffffffffffffffffffffffffffffffff1673ffffffffffffffffffffffffffffffffffffffff1673ffffffffffffffffffffffffffffffffffffffff168152602001908152602001600020600101600483815481106144e557fe5b9060005260206000200160009054906101000a900473ffffffffffffffffffffffffffffffffffffffff16600160006004868154811061452157fe5b9060005260206000200160009054906101000a900473ffffffffffffffffffffffffffffffffffffffff1673ffffffffffffffffffffffffffffffffffffffff1673ffffffffffffffffffffffffffffffffffffffff16815260200190815260200160002060020160009054906101000a900460ff16838054600181600116156101000203166002900480601f01602080910402602001604051908101604052809291908181526020018280546001816001161561010002031660029004801561462c5780601f106146015761010080835404028352916020019161462c565b820191906000526020600020905b81548152906001019060200180831161460f57829003601f168201915b50505050509350828054600181600116156101000203166002900480601f0160208091040260200160405190810160405280929190818152602001828054600181600116156101000203166002900480156146c85780601f1061469d576101008083540402835291602001916146c8565b820191906000526020600020905b8154815290600101906020018083116146ab57829003601f168201915b50505050509250955095509550955050506146ee565b80806001019150506142e0565b50505b9193509193565b80600260008381526020019081526020016000206000016000015414614783576040517f08c379a00000000000000000000000000000000000000000000000000000000081526004018080602001828103825260188152602001807f4d75737420626520616e206578697374656420706f73742e000000000000000081525060200191505060405180910390fd5b50565b600560009054906101000a900473ffffffffffffffffffffffffffffffffffffffff1673ffffffffffffffffffffffffffffffffffffffff163373ffffffffffffffffffffffffffffffffffffffff1614614849576040517f08c379a000000000000000000000000000000000000000000000000000000000815260040180806020018281038252600e8152602001807f4d757374206265206f776e65722e00000000000000000000000000000000000081525060200191505060405180910390fd5b565b600080905060008090505b600260008481526020019081526020016000206006018054905081101561490c578373ffffffffffffffffffffffffffffffffffffffff166002600085815260200190815260200160002060060182815481106148af57fe5b9060005260206000200160009054906101000a900473ffffffffffffffffffffffffffffffffffffffff1673ffffffffffffffffffffffffffffffffffffffff1614156148ff576001915061490c565b8080600101915050614856565b506001151581151514614987576040517f08c379a000000000000000000000000000000000000000000000000000000000815260040180806020018281038252601c8152602001807f4d757374206265207265676973746572656420696e206576656e742e0000000081525060200191505060405180910390fd5b505050565b8060026000838152602001908152602001600020600001600001541415614a1b576040517f08c379a000000000000000000000000000000000000000000000000000000000815260040180806020018281038252601c8152602001807f4d757374206265206e6f7420616e206578697374656420706f73742e0000000081525060200191505060405180910390fd5b50565b600080905060008090505b6002600084815260200190815260200160002060060180549050811015614adf578373ffffffffffffffffffffffffffffffffffffffff16600260008581526020019081526020016000206006018281548110614a8257fe5b9060005260206000200160009054906101000a900473ffffffffffffffffffffffffffffffffffffffff1673ffffffffffffffffffffffffffffffffffffffff161415614ad25760019150614adf565b8080600101915050614a29565b506000151581151514614b3d576040517f08c379a0000000000000000000000000000000000000000000000000000000008152600401808060200182810382526021815260200180614eb26021913960400191505060405180910390fd5b505050565b60011515600160008373ffffffffffffffffffffffffffffffffffffffff1673ffffffffffffffffffffffffffffffffffffffff16815260200190815260200160002060020160009054906101000a900460ff16151514614c0b576040517f08c379a00000000000000000000000000000000000000000000000000000000081526004018080602001828103825260198152602001807f4d75737420626520616e206578697374656420766f7465722e0000000000000081525060200191505060405180910390fd5b50565b600080905060008090505b6002600084815260200190815260200160002060070180549050811015614ccf573373ffffffffffffffffffffffffffffffffffffffff16600260008581526020019081526020016000206007018281548110614c7257fe5b9060005260206000200160009054906101000a900473ffffffffffffffffffffffffffffffffffffffff1673ffffffffffffffffffffffffffffffffffffffff161415614cc25760019150614ccf565b8080600101915050614c19565b506000151581151514614d4a576040517f08c379a00000000000000000000000000000000000000000000000000000000081526004018080602001828103825260148152602001807f4d75737420766f7465206f6e6c79206f6e63652e00000000000000000000000081525060200191505060405180910390fd5b5050565b6002600082815260200190815260200160002060000160030154421115614ddd576040517f08c379a00000000000000000000000000000000000000000000000000000000081526004018080602001828103825260198152602001807f4d75737420626520696e20766f74696e6720706572696f642e0000000000000081525060200191505060405180910390fd5b50565b828054600181600116156101000203166002900490600052602060002090601f016020900481019282601f10614e2157805160ff1916838001178555614e4f565b82800160010185558215614e4f579182015b82811115614e4e578251825591602001919060010190614e33565b5b509050614e5c9190614e8c565b5090565b815481835581811115614e8757818360005260206000209182019101614e869190614e8c565b5b505050565b614eae91905b80821115614eaa576000816000905550600101614e92565b5090565b9056fe4d757374206e6f7420796574207265676973746572656420696e206576656e742ea265627a7a7231582051e152d15808686bf81c93634c38b50947e1ba2ecee6691b5b2a7984ce37562664736f6c63430005100032",
  "source": "pragma solidity ^0.5.16;\n\nimport \"./DataStructure.sol\";\nimport \"./Candidates.sol\";\nimport \"./Voters.sol\";\n\ncontract Voting is DataStructure, Candidates, Voters {\n\n    event eventAdded(bytes32 evtID);\n    event candidateEventAdded(address candidate);\n    event candidateEventRemoved(address candidate);\n    event castVotingEvent(address voter);\n\n    constructor()\n    public\n    {\n        owner = msg.sender;\n    }\n\n    modifier onlyOwner() {\n        _onlyOwner();\n        _;\n    }\n\n    function _onlyOwner() internal view {\n        require (\n            msg.sender == owner,\n            \"Must be owner.\"\n        );\n    } \n\n    modifier existedEvent(bytes32 evtID) {\n        _existedEvent(evtID);\n        _;\n    }\n\n    function _existedEvent(bytes32 evtID) internal view {\n        require(\n            regEvents[evtID].evt.eventID == evtID,\n            \"Must be an existed post.\"\n        );\n    }\n\n    modifier nonExistedEvent(bytes32 evtID) {\n        _nonExistedEvent(evtID);\n        _;\n    }\n\n    function _nonExistedEvent(bytes32 evtID) internal view {\n        require(\n            regEvents[evtID].evt.eventID != evtID,\n            \"Must be not an existed post.\"\n        );\n    }\n\n    modifier existedVoter(address voter) {\n        _existedVoter(voter);\n        _;\n    }\n\n    function _existedVoter(address voter) internal view {\n        require(\n            regVoters[voter].active == true,\n            \"Must be an existed voter.\"\n        );\n    }\n\n    modifier nonExistedVoter(address voter) {\n        _nonExistedVoter(voter);\n        _;\n    }\n\n    function _nonExistedVoter(address voter) internal view {\n        require(\n            regVoters[voter].active == false,\n            \"Must be not an existed voter.\"\n        );\n    }\n\n    modifier existedCandidate(address candidate) {\n        _existedCandidate(candidate);\n        _;\n    }\n\n    function _existedCandidate(address candidate) internal view {\n        require(\n            regCandidates[candidate].active == true,\n            \"Must be an existed candidate.\"\n        );\n    }\n\n    modifier nonExistedCandidate(address candidate) {\n        _nonExistedCandidate(candidate);\n        _;\n    }\n\n    function _nonExistedCandidate(address candidate) internal view {\n        require(\n            regCandidates[candidate].active == false,\n            \"Must be not an existed candidate.\"\n        );\n    }\n\n    modifier existedCandidateEvent(address candidate, bytes32 evtID) {\n        _existedCandidateEvent(candidate, evtID);\n        _;\n    }\n\n    function _existedCandidateEvent(address candidate, bytes32 evtID) internal view {\n        bool ret_val = false;\n        for(uint i = 0; i < regEvents[evtID].candidateAddr.length; i++) {\n            if (regEvents[evtID].candidateAddr[i] == candidate) {\n                ret_val = true;\n                break;\n            }\n        }\n        require(\n            ret_val == true,\n            \"Must be registered in event.\"\n        );\n    }\n\n    modifier nonExistedCandidateEvent(address candidate, bytes32 evtID) {\n        _nonExistedCandidateEvent(candidate, evtID);\n        _;\n    }\n\n    function _nonExistedCandidateEvent(address candidate, bytes32 evtID) internal view {\n        bool ret_val = false;\n        for(uint i = 0; i < regEvents[evtID].candidateAddr.length; i++) {\n            if (regEvents[evtID].candidateAddr[i] == candidate) {\n                ret_val = true;\n                break;\n            }\n        }\n        require(\n            ret_val == false,\n            \"Must not yet registered in event.\"\n        );\n    }\n\n    modifier onlyOnceVoting(bytes32 evtID) {\n        _onlyOnceVoting(evtID);\n        _;\n    }\n\n    function _onlyOnceVoting(bytes32 evtID) internal view {\n        bool ret_val = false;\n        for(uint i = 0; i < regEvents[evtID].voterAddr.length; i++) {\n            if (regEvents[evtID].voterAddr[i] == msg.sender) {\n                ret_val = true;\n                break;\n            }\n        }\n        require(\n            ret_val == false,\n            \"Must vote only once.\"\n        );\n    }\n\n    modifier checkEndDate(bytes32 evtID) {\n        _checkEndDate(evtID);\n        _;\n    }\n\n    function _checkEndDate(bytes32 evtID) internal view {        \n        require(\n            now <= regEvents[evtID].evt.dateEnd,\n            \"Must be in voting period.\"\n        );\n    }\n\n    /**\n     * @dev Function to register event\n     * @param eventName as the name for the event\n     * @param location as the location of the event\n     * @param startDate is the date voting started\n     * @param period is the voting period until finish\n     */\n    function registerEvent(\n        string memory eventName, \n        string memory location, \n        uint startDate, \n        uint period)\n    public\n    onlyOwner\n    nonExistedEvent(keccak256(abi.encodePacked(eventName)))\n    {\n        bytes32 evtID = keccak256(abi.encodePacked(eventName));\n        regEvents[evtID].evt.eventID = evtID;\n        regEvents[evtID].evt.eventName = eventName;\n        regEvents[evtID].evt.location = location;\n        regEvents[evtID].evt.dateStart = startDate;\n        regEvents[evtID].evt.dateEnd = startDate + period * 1 days;\n\n        emit eventAdded(evtID);\n    }\n\n    /**\n     * @dev Function to get event by name\n     * @param eventName as the name for the event\n     * @return event details\n     */\n    function getEventByName(string memory eventName)\n    public\n    view\n    existedEvent(keccak256(abi.encodePacked(eventName)))\n    returns(bytes32, string memory, string memory, uint, uint)\n    {\n        bytes32 evtID = keccak256(abi.encodePacked(eventName));\n        \n        return (regEvents[evtID].evt.eventID, \n                regEvents[evtID].evt.eventName,\n                regEvents[evtID].evt.location,\n                regEvents[evtID].evt.dateStart,\n                regEvents[evtID].evt.dateEnd);\n    }\n\n    /**\n     * @dev Function to get event by id\n     * @param evtID is the Keccak hashed ID for event\n     * @return event details\n     */\n    function getEventByID(bytes32 evtID)\n    public\n    view\n    existedEvent(evtID)\n    returns(bytes32, string memory, string memory, uint, uint)\n    {\n        return (regEvents[evtID].evt.eventID, \n                regEvents[evtID].evt.eventName,\n                regEvents[evtID].evt.location,\n                regEvents[evtID].evt.dateStart,\n                regEvents[evtID].evt.dateEnd);\n    }\n\n    /**\n     * @dev Function to get candidates listed in event\n     * @param evtID is the Keccak hashed ID for event\n     * @return array of candidate address\n     */\n    function getCandidatesByEventID(bytes32 evtID)\n    public\n    view\n    existedEvent(evtID)\n    returns(address[] memory)\n    {\n        return regEvents[evtID].candidateAddr;\n    }\n\n    /**\n     * @dev Function to add the candidate to event\n     * @param candidate is the address for each candidate\n     * @param evtID is the Keccak hashed ID for event\n     */\n    function addCandidateToEvent(address candidate, bytes32 evtID)\n    public\n    onlyOwner\n    existedEvent(evtID)\n    nonExistedCandidateEvent(candidate, evtID)\n    {\n\n        regEvents[evtID].candidateAddr.push(candidate);\n\n        emit candidateEventAdded(candidate);\n    }\n\n    /**\n     * @dev Function to remove the candidate from event\n     * @param candidate is the address for each candidate\n     * @param evtID is the Keccak hashed ID for event\n     */\n    function removeCandidateFromEvent(address candidate, bytes32 evtID)\n    public\n    onlyOwner\n    existedEvent(evtID)\n    existedCandidateEvent(candidate, evtID)\n    {\n        require(regEvents[evtID].candidateAddr.length > 0, \"No candidate yet\");\n\n        uint idx;\n        for(idx = 0; idx < regEvents[evtID].candidateAddr.length; idx++) {\n            if(regEvents[evtID].candidateAddr[idx] == candidate) {\n                break;\n            }\n        }\n\n        regEvents[evtID].candidateAddr[idx] = regEvents[evtID].candidateAddr[regEvents[evtID].candidateAddr.length - 1];\n        delete regEvents[evtID].candidateAddr[regEvents[evtID].candidateAddr.length - 1];\n\n        regEvents[evtID].candidateAddr.length--;\n\n        emit candidateEventRemoved(candidate);\n    }\n\n    /**\n     * @dev Function to cast vote\n     * @param candidate is the address for each candidate\n     * @param evtID is the Keccak hashed ID for event\n     */\n    function castVoting(address candidate, bytes32 evtID)\n    public\n    existedVoter(msg.sender)\n    onlyOnceVoting(evtID)\n    existedEvent(evtID)\n    existedCandidateEvent(candidate, evtID)\n    checkEndDate(evtID)\n    {\n        regEvents[evtID].voteResults[candidate].count++;\n        regEvents[evtID].voterAddr.push(msg.sender);\n\n        emit castVotingEvent(msg.sender);\n    }\n\n    /**\n     * @dev Function to get voting result\n     * @param candidate is the address for each candidate\n     * @param evtID is the Keccak hashed ID for event\n     * @return voting count\n     */\n    function getResultByCandidate(address candidate, bytes32 evtID)\n    public\n    view\n    existedEvent(evtID)\n    existedCandidateEvent(candidate, evtID)\n    returns (uint)\n    {\n        return regEvents[evtID].voteResults[candidate].count;\n    }\n}\n",
  "sourcePath": "/home/ammar/work/voting_smart_contract/contracts/Voting.sol",
  "compiler": {
    "name": "solc",
    "version": "0.5.16+commit.9c3226ce.Emscripten.clang"
  },
  "schemaVersion": "3.0.23",
  "updatedAt": "2020-04-08T23:43:59.229Z",
  "networkType": "ethereum",
  "devdoc": {
    "methods": {
      "addCandidateToEvent(address,bytes32)": {
        "details": "Function to add the candidate to event",
        "params": {
          "candidate": "is the address for each candidate",
          "evtID": "is the Keccak hashed ID for event"
        }
      },
      "addToCandidate(string,string,string,address)": {
        "details": "Function to add candidate",
        "params": {
          "addr": "is the candidate address",
          "group": "is the candidate's group",
          "id": "is the candidate's id",
          "name": "is the candidate's name"
        }
      },
      "addToVoter(string,string,address)": {
        "details": "Function to add voter",
        "params": {
          "addr": "is the voter's address",
          "id": "is the voter's id",
          "name": "is the voter's name"
        }
      },
      "castVoting(address,bytes32)": {
        "details": "Function to cast vote",
        "params": {
          "candidate": "is the address for each candidate",
          "evtID": "is the Keccak hashed ID for event"
        }
      },
      "getAllCandidates()": {
        "details": "Function to get all candidate",
        "return": "List of candidates"
      },
      "getAllVoters()": {
        "details": "Function to get all voters",
        "return": "List of voters"
      },
      "getCandidateByAddress(address)": {
        "details": "Function to get candidate by address",
        "params": {
          "addr": "is the candidate name"
        }
      },
      "getCandidateByID(string)": {
        "details": "Function to get candidate by id",
        "params": {
          "id": "is the candidate name"
        }
      },
      "getCandidatesByEventID(bytes32)": {
        "details": "Function to get candidates listed in event",
        "params": {
          "evtID": "is the Keccak hashed ID for event"
        },
        "return": "array of candidate address"
      },
      "getEventByID(bytes32)": {
        "details": "Function to get event by id",
        "params": {
          "evtID": "is the Keccak hashed ID for event"
        },
        "return": "event details"
      },
      "getEventByName(string)": {
        "details": "Function to get event by name",
        "params": {
          "eventName": "as the name for the event"
        },
        "return": "event details"
      },
      "getResultByCandidate(address,bytes32)": {
        "details": "Function to get voting result",
        "params": {
          "candidate": "is the address for each candidate",
          "evtID": "is the Keccak hashed ID for event"
        },
        "return": "voting count"
      },
      "getVoterByAddress(address)": {
        "details": "Function to get voter by address",
        "params": {
          "addr": "is the voter name"
        }
      },
      "getVoterByID(string)": {
        "details": "Function to get voter by id",
        "params": {
          "id": "is the voter name"
        }
      },
      "isCandidateListed(address)": {
        "details": "Function to check if candidate existed",
        "params": {
          "addr": "is the candidate address"
        },
        "return": "exist or not exist"
      },
      "isVoterListed(address)": {
        "details": "Function to check if voter existed",
        "params": {
          "addr": "is the voter address"
        },
        "return": "exist or not exist"
      },
      "registerEvent(string,string,uint256,uint256)": {
        "details": "Function to register event",
        "params": {
          "eventName": "as the name for the event",
          "location": "as the location of the event",
          "period": "is the voting period until finish",
          "startDate": "is the date voting started"
        }
      },
      "removeCandidateFromEvent(address,bytes32)": {
        "details": "Function to remove the candidate from event",
        "params": {
          "candidate": "is the address for each candidate",
          "evtID": "is the Keccak hashed ID for event"
        }
      },
      "removeFromCandidate(address)": {
        "details": "Function to remove candidate",
        "params": {
          "addr": "is the candidate address"
        }
      },
      "removeFromVoter(address)": {
        "details": "Function to remove voter",
        "params": {
          "addr": "is the voter address"
        }
      }
    }
  },
  "userdoc": {
    "methods": {}
  }
}